:1000000071C0000081C000007FC000007DC0000002
:100010007BC0000079C0000077C0000075C0000000
:1000200073C0000071C000006FC000006DC0000010
:100030006BC0000069C0000067C0000065C0000020
:1000400063C0000061C000005FC000005DC0000030
:100050005BC0000059C0000057C0000055C0000040
:1000600053C0000051C000004FC000004DC0000050
:100070004BC0000049C0000047C0000045C0000060
:1000800043C0000041C000003FC000003DC0000070
:100090003BC0000039C0000037C0000035C0000080
:1000A00033C0000031C000002FC000002DC0000090
:1000B0002BC0000029C0000027C0000025C00000A0
:1000C00023C0000021C000001FC000001DC00000B0
:1000D0001BC0000019C0000017C0000015C00000C0
:1000E00013C0000011241FBECFEFD1E2DEBFCDBF91
:1000F00000E00CBF22E0A0E0B2E001C01D92A631FA
:10010000B207E1F7A7D2D4C27BCF87B1876F87B997
:1001100088B1807888B9089586E69EE00197F1F766
:1001200000004098419880E388B9429AEFEFF7E4E5
:100130003197F1F700C000004298E6E6FEE0319703
:10014000F1F700004098419888B9429AEFEFF7E440
:100150003197F1F700C000004298E6E6FEE03197E3
:10016000F1F700004098419888B9429A8FEF97E4E0
:100170000197F1F700C000004298E6E6FEE03197F3
:10018000F1F700004098419880E288B9429A8FEFD9
:1001900097E40197F1F700C000004298089598B1E4
:1001A0009F7098B998B1282F207F922B98B94098CA
:1001B0004198429AEFEFF7E43197F1F700C0000061
:1001C000429898B19F7098B998B18295807F892B99
:1001D00088B940984198429A8FEF97E40197F1F7D8
:1001E00000C000004298089597DF86E69EE00197E0
:1001F000F1F7000088E2D3DF81E0D1DF86E0CFDFD6
:100200008EE0CDDF80E8CBCF089598B19F7098B98C
:1002100098B1282F207F922B98B9409A4198429A02
:10022000EFEFF7E43197F1F700C00000429898B182
:100230009F7098B998B18295807F892B88B9409A30
:100240004198429A8FEF97E40197F1F700C00000C0
:100250004298089580E8A3CF0895823069F018F499
:10026000813031F00895833059F0843069F0089579
:100270008FE7860F94CF08958FEB860F90CF089568
:1002800083E9860F8CCF089583ED860F88CF08957C
:100290000F931F93CF93DF938A01E901882311F015
:1002A000611102C0D7DF01C0D8DFC530D10509F028
:1002B000D1C09801329522952F7023273F702327B4
:1002C000A7E4B3E0E6D196958795969587959695A0
:1002D0008795C096909305028093040296DF98015B
:1002E000369527953695279536952795A5ECB0E256
:1002F000D0D1AC01529542954F7045275F7045278C
:1003000050930702409306029A01ADECBCECC1D1B8
:100310009695879596958795969587959C01220F3A
:10032000331F880F991F880F991F880F991F820FFD
:10033000931F9A01281B390BC901C096909315028F
:100340008093140262DF03C0C330D10579F59801B0
:100350003695279536952795ABE7B4E19AD1AC0150
:100360005695479550930702409306029A01ADECCB
:10037000BCEC8FD1969587959695879596958795A0
:100380009C01220F331F880F991F880F991F880F18
:10039000991F820F931F9A01281B390BC901C09620
:1003A00090930F0280930E0230DF04C0C230D1055B
:1003B00009F055C09801ADECBCEC6BD1AC01569581
:1003C0004795569547955695479550930702409304
:1003D00006029A015ED19695879596958795969592
:1003E00087959C01220F331F880F991F880F991F33
:1003F000880F991F820F931F9A01281B390BC9017F
:10040000C09690930B0280930A02FFDE9801ADEC38
:10041000BCEC3FD19695879596958795969587954F
:100420009C01220F331F880F991F880F991F880F77
:10043000991F820F931F9801281B390BC901C09681
:100440009093130280931202E0DE269764F085E415
:10045000DCDE09C0C430D10509F076CF40CFC13011
:10046000D10599F7D3CFDF91CF911F910F910895C7
:1004700010BA11BA81B18F6081B982B1807F82B91F
:10048000EAE0F1E0808188618083089582B1807F15
:1004900082B982B1866082B98FEF90E09093290192
:1004A0008093280186EE90E090932B0180932A019F
:1004B000089582B1807F82B982B1866082B986E96F
:1004C00090E090932901809328018CED90E0909327
:1004D0002B0180932A01089582B1807F82B982B175
:1004E000866082B98BEE90E0909329018093280179
:1004F00086E990E090932B0180932A01089582B1C0
:10050000807F82B982B182B90895E0E2F1E0808112
:10051000816A8083E1E2F1E080818D6080830895CB
:10052000ECE7F0E0808180648083EAE7F0E080819E
:10053000876880830895883018F098E090937B0056
:100540008770806280937C00EAE7F0E080818064BD
:100550008083808184FFFDCF80917900EAE7F0E01D
:1005600090819061908310927B00089580910202A7
:10057000909103028F30910584F420911002309104
:100580001102293131054CF0209108023091090205
:100590002931310514F07ACF089520910802309165
:1005A00009022F30310514F484CF089540911002D0
:1005B000509111024F30510514F48ECF08954A31F5
:1005C000510534F04A9724F02A3131050CF097CFC9
:1005D000089581E0B0DF90E09093110280931002C3
:1005E00082E0A9DF90E0909303028093020283E00F
:1005F000A2DF90E0909309028093080285E09BDFE0
:1006000090E090930D0280930C024091080250916B
:10061000090223E030E061E081E03ADE409102022D
:100620005091030223E030E065E081E031DE40914B
:1006300010025091110223E030E069E081E028DEF1
:1006400040910C0250910D0223E030E061E082E025
:100650001FCE08950DDF64DF58DDC6DD56DFC1E033
:10066000D0E0B7DF8091000290910102009719F06D
:10067000019769F0F6CF80910C0290910D028634BB
:1006800091057CF7D0930102C0930002EACF6EDFA0
:10069000E8CFA29FB001B39FC001A39F700D811D41
:1006A0001124911DB29F700D811D1124911D08957B
:0406B000F894FFCFEC
:00000001FF
